:020000041A00E0
:10000000082200104D06001A5506001A5706001A5D
:100010005906001A5B06001A5D06001A5A5A5A5A07
:10002000000000000000000000000000E504001ACD
:100030006106001A000000009105001A0506001A6A
:100040006706001A6706001A2955001A000000000A
:100050006706001A7556001A6706001A6706001A26
:100060006706001A6706001A6706001A6706001A74
:100070006706001A517E001A6706001A6706001A02
:100080006706001A6706001A7D6A001A6706001ADA
:100090006706001A6706001A6706001A6706001A44
:1000A000BD80001AA180001AD980001A6706001AC4
:1000B0006706001A6706001A6706001A6706001A24
:1000C0007970001A6706001A6706001A6706001A98
:1000D0006706001A6706001A6706001A6706001A04
:1000E0006706001A6706001A6706001A6706001AF4
:1000F000000000006706001A6706001A5D7A001A01
:10010000000000006706001A6706001A6706001A5A
:100110006706001A00000000000000000000000058
:1001200000000000000000000000000000000000CF
:1001300000000000000000000000000000000000BF
:1001400000000000000000000000000000000000AF
:10015000000000000000000000000000000000009F
:10016000000000000000000000000000000000008F
:10017000000000000000000000000000000000007F
:10018000000000000000000000000000000000006F
:10019000000000000000000000000000000000005F
:1001A000000000000000000000000000000000004F
:1001B000000000000000000000000000000000003F
:1001C000000000000000000000000000000000002F
:1001D000000000000000000000000000000000001F
:1001E000000000000000000000000000000000000F
:1001F00000000000000000000000000000000000FF
:1002000000000000000000000000000000000000EE
:1002100000000000000000000000000000000000DE
:1002200000000000000000000000000000000000CE
:1002300000000000000000000000000000000000BE
:1002400000000000000000000000000000000000AE
:10025000000000000000000000000000000000009E
:10026000000000000000000000000000000000008E
:10027000000000000000000000000000000000007E
:10028000000000000000000000000000000000006E
:10029000000000000000000000000000000000005E
:1002A000000000000000000000000000000000004E
:1002B000000000000000000000000000000000003E
:1002C000000000000000000000000000000000002E
:1002D000000000000000000000000000000000001E
:1002E000000000000000000000000000000000000E
:1002F000000000000000000000000000FFFFFFFF02
:1003000000F002F800F0AAF80AA090E8000C82447D
:100310008344AAF10107DA4501D100F09FF8AFF25A
:10032000090EBAE80F0013F0010F18BFFB1A43F0D3
:10033000010318473CF503009CF5030010F8013B4E
:100340000A4413F0030408BF10F8014B1D1108BF45
:1003500010F8015B641E05D010F8016B641E01F8F3
:10036000016BF9D1002D15D010F8014B03F00C03EF
:100370000C2BA1EB04040ABF10F8013BA4EB83147F
:10038000A4EB032405F1010314F8016B5B1E01F8D3
:10039000016BF9D5914238BF10F8013BD1D37047BA
:1003A000103A24BF78C878C1FAD8520724BF30C8A1
:1003B00030C144BF04680C60704700000023002473
:1003C00000250026103A28BF78C1FBD8520728BF65
:1003D00030C148BF0B6070476E2900F02F83702931
:1003E00000F0B48366293CF0E48003681B0A28BF50
:1003F00041F08001642900F0E582752900F0E28275
:10040000782900F09683E42900F02E83732901F007
:100410005886002070471FB53CF0C1F80B480C49C6
:1004200001F02CFB00F051FF01F009FB040000205B
:1004300000213BF05DF9401C6060002000213BF092
:100440006DF9E06002F0DAF81FBD0000000000283E
:100450000000102810B502F049F910BDDFF80CD0EB
:10046000FFF7D9FF26F092FC02F01DFF00A0081054
:1004700003B4FFF7EFFF03BC09F027FC80F3098802
:100480007047EFF309807047684680F30988044895
:100490000078C00714BF0220032080F3148870473F
:1004A00094E7031ADFF818C0EFF305831B0618BFA3
:1004B0006047EFF31483DB0708BF604700DF704736
:1004C0003102031ADFF818C0EFF305831B0618BFCB
:1004D0006047EFF31483DB0708BF604700DF704716
:1004E0003D04031AEFF30980816911F8021CC9BBAE
:1004F00010B590E80F10E047BDE81040EFF3098C0D
:10050000204B93E80600914229D081B10CB41EF033
:10051000100F06BF2CED108A0323012381F826302B
:100520002CE9F00FC1F82CC030F070FA0CBC1A6046
:10053000D2F82CC0BCE8F00F92F8263013F0020F6E
:100540001ABFBCEC108A6FF0120E6FF0020E8CF323
:10055000098813F0010F08BF704792F82500CCF806
:100560000000704710B5084A1268914209D8074C3C
:1005700054F8214090E80F10A047EFF3098C8CE865
:100580000F0010BDFC000010E83A001AE83A001A0B
:1005900010B530F0D5F8BDE81040194B93E80600CF
:1005A000914208BF70470CB4EFF3098C1EF0100F96
:1005B00006BF2CED108A0223002381F826302CE997
:1005C000F00FC1F82CC030F021FA0CBC1A60D2F840
:1005D0002CC0BCE8F00F92F8263013F0020F1ABFBF
:1005E000BCEC108A6FF0120E6FF0020E8CF30988CB
:1005F00013F0010F1CBF92F82530CCF80030704783
:10060000FC00001010B530F0D3FAC4E710B52BF0A1
:1006100075FA30F0CDFABEE70B49D1F800C04A6850
:100620005CF8043B1068184442F8040B8C4528BF62
:10063000A1F1DC0C8A4228BFA1F1DC02C1F800C0A4
:100640004A6020F000407047FC11001006488047C7
:1006500006480047FEE7FEE7FEE7FEE7FEE7FEE7A7
:10066000FEE7FEE7FEE7FEE7357E001A0103001A0B
:10067000004870476C1000107047000010B501F082
:10068000DEF9001D10BD00BF69B003000B3020F083
:10069000070070472DE9F04117460E460446FFF764
:1006A000F5FFA042054633D9002F1CBF06F10C0010
:1006B00009F0CCFA30467468F4B12168A94217D326
:1006C00005F1080291423CBF6168416007D362684E
:1006D00061194A602268521B0A6041602560002F40
:1006E0001CBF06F10C0009F0D7FA201DBDE8F0810F
:1006F00020466468002CE0D12946304601F0AAF972
:100700000028D7D1002F1CBF06F10C0009F0C4FA55
:100710000020BDE8F08110B5044601F08BF90168B6
:100720002046BDE810400122B4E770B516460D46DC
:10073000041F002808BF70BD002E1CBF05F10C006F
:1007400009F084FA2B465868002818BFA04238BF29
:100750000346F8D31968CA18A24218BF5C6003D1D7
:1007600022681C461144196021680A19824218BF88
:10077000606004D142686260006808442060002E16
:100780001CBF05F10C0009F087FA70BD10B50446D6
:1007900001F050F901682046BDE810400122C4E78D
:1007A00053EA020C00F069802DE9F04B4FF000068F
:1007B000002B1FBFB3FA83F503FA05F424FA05F6FC
:1007C0005E4012BF1643B2FA82F502FA05F4C5F193
:1007D00020051EBF22FA05FC44EA0C04203556EA27
:1007E000044C4FEA144418BF641C4FF000084FF04B
:1007F0000009904271EB030C39D3002919BFB1FAFB
:1008000081F701FA07F6B0FA80F700FA07F6C7F1A8
:1008100020071EBF20FA07FC46EA0C062037B6FB6D
:10082000F4FCA7EB0507103F07F01F0BCBF12006E8
:100830000CFA0BFB2CFA06F644BFB3460026202F19
:10084000A4BF5E464FF0000B5BEA060C08BF4FF0FA
:10085000010B19EB0B09ABFB027C48EB0608C01B34
:1008600006FB02CC0BFB03CC71EB0C01C1E70B4682
:10087000024641464846BDE8F08B13B54FF00000F4
:100880004FF00001AFF30080BDE81C40704710B589
:100890000446FFF7F3FE0068005DC00602D504F1D0
:1008A000200010BD204610BD10B50446FFF7E6FE3F
:1008B0000068005D000704D5DF2C02D0A4F1200001
:1008C00010BD204610BD00000FB4044910B503AAA6
:1008D000029802F043FC10BC5DF814FBCC10001031
:1008E0000FB4014610B504AA039802F037FC10BCFF
:1008F0005DF814FB0FB41CB5084B06AA7B4469468F
:100900000090059801F0B3FB04460020694601F011
:10091000C1FB20461CBC5DF814FB000095170000CD
:1009200070B5044685690068C10601D5302600E02F
:100930002026C00708D070BDD4E901213046904779
:10094000206A00F1010020626D1EF5D570BD70B502
:10095000044685690078C00708D170BDD4E901213B
:1009600020209047206A00F1010020626D1EF5D51D
:1009700070BD70B50C460546012A05D02878800662
:1009800000D5EA69002302E0012305E05B1C9342E5
:1009900002D2E05C0028F9D1A869E618C01AA86163
:1009A000286A184428622846FFF7BAFF04E0D5E910
:1009B000012114F8010B9047B442F8D32846FFF701
:1009C000C6FF70BD2DE9F041064600241068752968
:1009D000314616A511D0AFF30080002803DAC0F12C
:1009E000000013A507E031688A0701D511A502E0D0
:1009F000490704D510A5012401E0AFF300800021D0
:100A00000A2306F1240707E0B0FBF3F203FB120010
:100A1000303078541046491C0028F5D123462A4628
:100A20003046BDE8F04101F0B1B800000000000020
:100A30002D0000002B00000020000000116802685B
:100A4000006A530501D508700BE0D30501D5088075
:100A500007E0130603D5C217C1E9000201E0520600
:100A600008600120704700002DE9F0418046D21D4A
:100A700022F007020025D2E90002F52914A612D0BF
:100A8000002A06DA0023D0EB030063EB020211A672
:100A900008E0D8F800108B0701D50FA602E049073F
:100AA00001D50EA601251146002408F1240704E013
:100AB00001F01CF830323A55641C50EA0102F7D1BB
:100AC0002B46324621464046BDE8F04101F05EB873
:100AD000000000002D0000002B000000200000009E
:100AE000F0B40D460188090502D51C4C7C4402E097
:100AF0001A4C7C440E34002100F1240307E002F07C
:100B00000F064FEA1212A65D5E5401F10101002AA0
:100B1000F5D113460278120704D5702D06D009B11D
:100B2000113402232246F0BC01F030B81034012306
:100B3000F8E770B504460D4621461068AFF3008013
:100B4000024629462046BDE87040C9E7036812689E
:100B500043F0200303600823C361C1E708E40300F6
:100B60002DE9F05F894604464FF0000ADFF878B1BE
:100B7000FB44C0F820A02046E1688847002875D0D3
:100B8000252806D0D4E901219047206A401C206224
:100B9000F1E700265F462046E168884720280546A1
:100BA00008DB312D06D207EB050010F8200C08B148
:100BB0000643F0E7B00701D526F00406C4F81CA0F0
:100BC0000027C4F818A02A2D09D0284609F037F8C4
:100BD00038B304EB8708303DC8F8185019E059F8CD
:100BE000041B204604EB87029161E1688847012FCE
:100BF000054618D1E069002820DA26F020061DE01D
:100C0000D8F8180000EB800005EB40003038C8F839
:100C100018002046E1688847054609F010F80028CA
:100C2000EED1012F0AD02E2D08D12046E168884749
:100C30007F1C0546022F46F02006C4DBA069002871
:100C400003DA404246F00106A061F00701D026F029
:100C500010066C2D0BD0682D09D04C2D39D06A2D83
:100C600035D0742D35D07A2D33D016E038E0E168D8
:100C70002F4620468847B842054609D16C2F26D01A
:100C80004FF48060E168064320468847054604E04B
:100C90006C2F1AD04FF4807006430DB3A5F14100BC
:100CA000192802D8203546F400664A4629462046CF
:100CB00026604E46FFF790FB80B101280BD0F61D51
:100CC00026F0070000F1080955E74020E4E78020FE
:100CD000D8E70020D6E706F104094CE7284651E79B
:100CE000206ABDE8F09F0000ACE303000FB400B53C
:100CF0008DB010A9099000910B904FF0FF300A9031
:100D000000200C90064878440690064878446A46CD
:100D100007900F9909A801F0EDF90DB05DF814FBEB
:100D20000B140000231400002DE9FF5F1D464FF057
:100D3000FF3B91464FF000085F46D5E90146A9699F
:100D400001987F1C8847296A824688470028F6D187
:100D50001AF101000CD0002E24F4C06419DD6006E5
:100D600014D5BAF12B0F09D0BAF12D0F0ED103E033
:100D7000584604B0BDE8F09F44F48064A969019826
:100D80007F1C8847761E8246002E02DDBAF1300FA6
:100D900003D0B9F1000F26D032E0A969761E019880
:100DA0007F1C44F400748847002E824605DDBAF1AA
:100DB000780F06D0BAF1580F03D0B9F1000F10D058
:100DC0001EE0B9F1000F02D0B9F1100F18D1A969D6
:100DD000761E01987F1C24F40074884782461020F8
:100DE00002E0082000E00A20814609E0A96908FB2A
:100DF0000908761E01987F1C44F4007488478246D7
:100E0000002E05DD4946504601F05FF90028EDDA75
:100E1000E96901988847A00502D46FF00100A8E7AE
:100E2000E00727D1600614D5600502D5C8F100009F
:100E300000E04046296801F104022A6009682205A1
:100E400001D5087016E0220701D5088012E008607D
:100E500010E0286800F1040129600068210502D52E
:100E600080F8008006E0210702D5A0F8008001E0AC
:100E7000C0F8008038467CE770B5064600F0E4FD17
:100E80000468054630460A22002101F0B2F92C60C0
:100E900070BD2DE9F05F93460F468046044600265C
:100EA00000F0D2FDD0F80090824614F8015B2DB11D
:100EB000FFF7E4FB0068405DC007F6D12B2D02D0A0
:100EC0002D2D1AD0641E0021CAF800105A4639464A
:100ED000204601F03FF9014627B13868A04201D110
:100EE000C7F80080DAF80000022809D0CAF800909C
:100EF000700505D54842BDE8F09F46F48066E2E7FC
:100F00000846F8E72DE9F041044616460D464769C4
:100F1000007B80072ED0384608F0E4FE50BB3EB37D
:100F2000012E02D0022E25D104E0204601F0B9FAAC
:100F300005441DE0384608F0CAFEE168002841F08B
:100F40001001E16005DA204601F0CEFA0120BDE88B
:100F5000F081C9030BD56268E16A914200D811465D
:100F6000A26911442269891A814200DD08460544BC
:100F7000002D01DA0220EAE7E16A6068E268814256
:100F800006D29103E06203D522F4003141F0100251
:100F9000A6690027AE4213DCE16A814201D90B4603
:100FA00000E0034603EB060C2369ACEB030CAC45F5
:100FB00006DD814201D98C4600E084469C4505D17E
:100FC000A760276042F02000A5620DE0AD1BE66936
:100FD000AE1B8142A66000D90846C01A281A2060BC
:100FE0005819606022F0200003490840E0600020AA
:100FF00084F84870ABE70000BFCFD7FF01F0ECBA30
:101000002DE9F04704464FF000094FF0FF37C5685F
:10101000D4E90486A80707D0204601F099FA3046A3
:1010200008F048FE002802DA3846BDE8F0872805B7
:1010300002D54046FFF7AAFB4C21204600F06EFB8C
:10104000206D20F0010020654846EEE770B50446AB
:1010500000F14C05284608F0F9FD204619F038FF4C
:101060000446284608F018FE204670BD70B50546B7
:101070000A4E304608F0EAFD05F14C04204608F01F
:10108000E5FD2846FFF7BCFF0546204608F004FEB4
:10109000304608F001FE284670BD00001401001023
:1010A0002DE9F04116460F46054600F14C04204656
:1010B00008F0CCFD324639462846FFF723FF0546A7
:1010C000204608F0E9FD2846BDE8F0812DE9F04111
:1010D000044600F14C07384608F0B8FDE068810787
:1010E00012D0800601D5A66A04E0A16960680844B0
:1010F0002169461A204601F02BFA002205463146A6
:101100002046FFF7FFFE00E00025384608F0C4FD4A
:101110002846BDE8F0812DE9F04118B1BDE8F04165
:10112000FFF7D4BF0B4E0025304608F08FFD0A4C68
:101130006F1E07E02046FFF7C9FF00B13D46206D56
:1011400020F00104002CF5D1304608F0A5FD28461A
:10115000DFE700001401001068A100202DE9F0472E
:1011600016468846814602F14C07384608F06EFD67
:101170003046FFF745FF18F8010B61280AD07228A6
:1011800002D077283FD102E00125002405E00225A6
:10119000042402E0082448F2020518F8010B2B2869
:1011A00006D0622809D018F8010C74280AD00BE088
:1011B00045F0030544F00204EFE745F0040544F070
:1011C0000104EAE744F010044846214608F092FD85
:1011D000411C18D00021316171604FF40071F5603D
:1011E000F1617061200704D5304602220021FFF72B
:1011F00089FE306D40F001003065384608F04CFD46
:101200003046BDE8F0870026F7E72DE9F0411546A6
:101210000E460746204C204608F018FD2A46314667
:101220003846FFF79BFF0546204608F035FD284667
:10123000BDE8F0812DE9F0410E468046164D284666
:1012400008F004FD154C206DC10704D0410804D0FE
:1012500020F00104F7E7224612E05420FFF75BFA82
:10126000070017D0206D47F0010108435421206585
:10127000384600F053FA07F14C0008F0F7FC3A4604
:1012800031464046FFF76AFF0446284608F004FD51
:101290002046CDE70024F8E71401001068A10020E3
:1012A0000B4910B5A1F17C020A4CC2E93712372173
:1012B00006E000EB104342F82130074B00FB0340EF
:1012C0000B1EA1F10101F4DC10BD0120E8E70000D4
:1012D0009C110010E119D666CD0D010001F072BA23
:1012E000401ECAB210F8011F8A4202D00029F9D16B
:1012F0000020704740EA010310B59B070FD1042A74
:101300000DD310C808C9121F9C42F8D020BA19BAD0
:10131000884201D9012010BD4FF0FF3010BD1AB135
:10132000D30703D0521C07E0002010BD10F8013B8A
:1013300011F8014B1B1B07D110F8013B11F8014BB1
:101340001B1B01D1921EF1D1184610BD40EA0103CA
:10135000024630B59B0710D14FF0013400E008C2BF
:1013600008C91D1B9D4315EAC41FF8D013F0FF01E7
:1013700002F8011B0DD01B0AF8E711F8013B002B06
:1013800002F8013B05D011F8013B002B02F8013BAC
:10139000F3D130BD2DE9F041054690460E460020C0
:1013A000044600E0641C44450BD2285DFFF76FFA49
:1013B0000746305DFFF76BFA381A02D1295D002924
:1013C000F0D1BDE8F0812DE9F0410E46054600243C
:1013D00000E0641C285DFFF75AFA0746305DFFF70E
:1013E00056FA381A02D1295D0029F2D1BDE8F08100
:1013F00010B5431C02E010F8011B71B18107FAD14E
:101400004FF0013202C88C1A8C4314EAC211F9D091
:10141000C01A0A0603D0C01E10BDC01A10BD0A04AF
:1014200001D0801E10BD0902FCD0401E10BD40EA54
:10143000010370B59B072ED14FF00136042A2AD341
:1014400008C810C9121F9D1B9D4315EAC61517D069
:10145000D8B2E1B2401A50EA056110D198B2A1B2F7
:10146000401A50EA05410AD123F07F4024F07F4121
:10147000401A50EA052102D1180EA0EB146070BD8D
:10148000A342DBD018BA21BA884201D9012070BD2D
:101490004FF0FF3070BD0AB9002070BD10F8013B5D
:1014A00011F8014B63B1A3420AD1521E08D010F8C3
:1014B000013B11F8014B1BB1A34201D1521EEDD1EA
:1014C000181B70BD421E12F8013F002BFBD111F812
:1014D000013B002B02F8013BF9D17047032A40F28F
:1014E000308010F0030C00F0158011F8013BBCF1C6
:1014F000020F624498BF11F801CB00F8013B38BFDE
:1015000011F8013BA2F1040298BF00F801CB38BFEB
:1015100000F8013B11F0030300F06780083AC0F0C7
:10152000088051F8043B083A51F804CBA0E80810B1
:10153000F5E7121D5CBF51F8043B40F8043BAFF3E4
:101540000080D20724BF11F8013B11F801CB48BF3E
:1015500011F8012B24BF00F8013B00F801CB48BF74
:1015600000F8012B7047431A28BF9A427FF6B6AFA6
:10157000032A1044114440F2268010F0030F1EBFCE
:1015800011F8013D521E00F8013D10F0030F7FF4E9
:10159000F6AF11F0030300F06D80083AC0F00B8045
:1015A00051F8043D083A51F804CD40F8043D40F8A4
:1015B00004CDFFF7F3BF121D5CBF51F8043D40F8A6
:1015C000043DAFF30080D20724BF11F8013D11F8AC
:1015D00001CD48BF11F8012C24BF00F8013D00F8EF
:1015E00001CD48BF00F8012C704710B5203AC0F07B
:1015F0000B80B1E81850203AA0E81850B1E8185014
:10160000A0E81850BFF4F5AF5FEA027C24BFB1E850
:101610001850A0E8185044BF18C918C0BDE81040C1
:101620005FEA827C24BF51F8043B40F8043B08BFCA
:101630007047D20728BF31F8023B48BF11F8012B91
:1016400028BF20F8023B48BF00F8012B7047431A1F
:1016500028BF9A427FF6C9AF104410F0030F11441F
:101660001EBF11F8013D521E00F8013D10F0030F9E
:101670007FF4F6AF103AC0F00A8010B531E9185087
:10168000103A20E91850BFF4F9AFBDE810405307F5
:1016900024BF31E9081020E9081044BF51F8043D87
:1016A00040F8043D12F0030F08BF7047D20728BF6F
:1016B00031F8023D48BF11F8012C28BF20F8023D47
:1016C00048BF00F8012C704702F0FF0343EA0322F1
:1016D00042EA024200F002B84FF000020429C0F0D2
:1016E000128010F0030C00F01B80CCF1040CBCF154
:1016F000020F18BF00F8012BA8BF20F8022BA1EBA6
:101700000C0100F00DB85FEAC17C24BF00F8012B8A
:1017100000F8012B48BF00F8012B70474FF0000282
:1017200000B5134694469646203922BFA0E80C50D7
:10173000A0E80C50B1F12001BFF4F7AF090728BFB2
:10174000A0E80C5048BF0CC05DF804EB890028BF2E
:1017500040F8042B08BF704748BF20F8022B11F057
:10176000804F18BF00F8012B704700004FF0013C7C
:1017700050F8042B51F8043B9A4221D1A2EB0C0300
:10178000934313EACC1317D150F8042B51F8043BC0
:101790009A4215D1A2EB0C03934313EACC130BD15D
:1017A00050F8042B51F8043B9A4209D1A2EB0C03E8
:1017B000934313EACC13DBD04FF00000704700BF17
:1017C000D01A01BAB1FA81F101F0180122FA01F040
:1017D000CB40C1F12001DBB2C0B2C01A2CFA01F338
:1017E000D11A914311EAC311E6D1704730B50368AD
:1017F0001C1404EB21459BB289B2194495FBF2F409
:1018000002FB145301EB034191FBF2F302FB1311B2
:1018100001E05B1E11440029FBDB016003EB044087
:1018200030BD2DE9F04704464FF0FF3A86B000681E
:10183000029060680390A0680490E06801902069BD
:1018400000906569B5F1804F7EDCB5F1404F7BDBE0
:101850003C22002102A8FFF7C9FF3C22014603A851
:10186000FFF7C4FF1822014604A8FFF7BFFF411E7F
:1018700040F2B55201A8FFF7B9FF0C2206466846B0
:101880000021FFF7B3FF00EB860028443E4D002601
:101890007D440FE09A1A491CCDE90012022902D0BA
:1018A0000C2907D104E0810704D0521C019201E009
:1018B000401C00960099019B6A5C9A42EADD01296E
:1018C00006D11C2B04D1810702D00221CDE90016DC
:1018D000A0F146018B2940D20199009B00220F46BE
:1018E00002E0AE5C521C31449A42FADB012B02DD6D
:1018F000820700D0491E40F2B55540F26D16C2175E
:1019000000EB927292106A4300F0030505FB062279
:1019100085070A4400D1521E049D02EB4206DDF801
:101920000C80A94605EBC605184EC5EB0515DDF87C
:1019300008C008EB850535442E14ADB2C6EB06167B
:10194000C5EB0515B60000E007E00CEB850506EBDE
:10195000154666F31F45360C03D0504606B0BDE869
:10196000F0877F1CC4E90430521C072092FBF0F37F
:1019700004F1180600FB1320A6E803042846C4E976
:101980000297C4E900C8E9E78CD70300A039CEFD6F
:1019900070B50C46016800204A1C34D040F2B555A1
:1019A0003C23B1FBF3F203FB12112160B2FBF3F114
:1019B00003FB112218236260B1FBF3F203FB121147
:1019C000A16046F2E0310A440721B2FBF1F301FBCA
:1019D0001321B2FBF5F305FB1322A1619900B2F5C7
:1019E000B77F06D3521EAD10B2FBF5F3194405FBC9
:1019F00013220F4BE261616189077B440CD03B2AC3
:101A00000AD3521C08E02C212046FFF787FE012054
:101A1000E0600AE0521A401C195C9142FAD9521C4B
:101A2000C4E903204FF0FF302062204670BD000063
:101A300022D6030010B5FEF71BFE083010BD10B50E
:101A4000FEF716FE203010BD08F02CB87047704726
:101A50007047704738B504460A4600206946AFF320
:101A60000080002808BF38BD02460099204600F0DB
:101A7000CBFE012038BD012001F04BBBF8B5AFF320
:101A80000080054600200C46102000BF0646A8191D
:101A9000A0420DD9324669460020AFF3008007000E
:101AA00008BF01F036FB0098A04218BF0546C419D4
:101AB000FFF7C0FF05600746F01D20F0070046193C
:101AC000284600F00AF8B44208BFF8BDA21B314610
:101AD0003868BDE8F84000F097BE00210160C0E919
:101AE00001100C3008F0C2B81020704730B5B0F1CA
:101AF0000A024FEA900E71F100034EEA817EB0EBCC
:101B00000E0061EB91014FEA101E4EEA017E10EBD0
:101B10000E0041EB11114FEA102E4EEA016E10EB50
:101B20000E0041EB11214FEA104E4EEA014E10EB30
:101B30000E0041EB1141401841F100014FEAD00085
:101B400040EA41704FEAD10110EB80054FEA810471
:101B500044EA907444EB01046D1944EB0404521BF5
:101B6000A3414FF0000348BF0A3200D530BD401CEE
:101B700041F1000130BD10B5FFF766FF006810BDF0
:101B800010B50446FFF760FF046010BD2DE9F04773
:101B90000D4699469246044600F1240801688806DD
:101BA00004D5E06921F01001216000E00120A84285
:101BB00002DDA0EB050700E00027A16907EB0502A5
:101BC00002EB0900A1EB0000A0612078C00602D45E
:101BD0002046FEF7A5FE002608E0D4E901211AF808
:101BE00006009047206A401C761C20624E45F4DBBC
:101BF0002078C0060AD52046FEF792FE06E0D4E91A
:101C0000012130209047206A401C2062381EA7F135
:101C10000107F4DC07E0D4E9012118F8050090473A
:101C2000206A401C2062281EA5F10105F3DC204635
:101C3000FEF78DFE2078000602D50220BDE8F08771
:101C40000120FBE770472DE9FF4F0C461E464FF081
:101C5000FF378BB0D2E90001DDF860800A908A4638
:101C6000C1F30A5505B93D46002108464FF0000072
:101C7000BAF1000F00F4400005DA00EB80004FF4E9
:101C8000400101EA50004FEA9059B9F1010F00DD1F
:101C9000B9460A9850EA4A000ED044F61050A5F210
:101CA000FF3545432F14B8F1000F1ED07542291E91
:101CB0001EDDC9F100021CE0B8F1010F4FF0000079
:101CC00001D0302103E0F24305E02154401CB04232
:101CD000FBDB30460022002121540B99C1F808801B
:101CE000C1E900200FB0BDE8F08FBD1B6D1CDEE721
:101CF0004A4600DA694206A800F0A6FF06AB07CB09
:101D000003AB07C350460A9901F033FB8DE8070087
:101D1000A0F500501F3800900398002D09DD42F215
:101D20001F014A46084403A90390684601F092FD4A
:101D300008E0A0F500504A461F3803A90390684602
:101D400001F09CFD8DE807000004000C03D04FF06B
:101D5000FF30410800E01046B8F1000F03D0002228
:101D6000009215461FE0751E06D4FFF7BFFE02F174
:101D7000300262556D1EF8D5B3460122084302D0E9
:101D800000227F1C04E02078302801D100227F1E31
:101D9000002A099787D01DE0112D07DAFFF7A6FE6C
:101DA000303262556D1C50EA0102F5D108430FD163
:101DB0000021681E05E0235C625C6354491C2254C8
:101DC000401E8142F7DBAB46A81B401E099001E094
:101DD000009848B1002004F80B000B98099AC0F84D
:101DE0000880C0E9002B7DE711264FF000085AE774
:101DF0002DE9F04F88460446D21D22F0070191B02C
:101E0000D1E90001CDE90A0106F07CFA02460B98FF
:101E1000C00F01D02D2007E02068810701D52B20BD
:101E200002E0202101EAC000032A099001D0072A1C
:101E300005DB03464146204600F00EFD0FE1207809
:101E4000800601D5E06900E00620B8F1650F814603
:101E500006D0B8F1660F18D0B8F1670F72D132E032
:101E60000020B9F1110F009001DB112301E009F10D
:101E700001030AAA01A90CA8FFF7E5FEDDE90C7031
:101E8000002609F10105834648E001204B460090F9
:101E90004FF000470AAA01A90CA8FFF7D4FEDDE91C
:101EA0000DB00C995D46002618B909F1010001EB4F
:101EB0000005B9EB050003D4C0F1FF3609F10105B7
:101EC000A5EB09002BE0B9F1010F01DA4FF0010990
:101ED0000020B9F1110F0090484601DD112300E008
:101EE00003460AAA01A90CA8FFF7ADFEDDE90C70B4
:101EF0004D4600268346207800070AD4AB4500DA19
:101F00005D4601A8012D04DD411911F8011C30299D
:101F100007D04F4502DA17F1040F04DA0120824698
:101F200010E06D1EEEE7002F02DCED1B3E4403E0E7
:101F3000781CA84200DD0546A7EB060000F1010A67
:101F40004FF000472078000703D4AA4501DB4FF08B
:101F5000FF3A0021B7F1004F0DF143088DF843100F
:101F600023D002202B23002F01DA7F422D234FF0B4
:101F70000A0C011EA0F1010000DC4FB197FBFCF13F
:101F80000CFB11720F4602F1300208F8012DF0E748
:101F9000A8F1010003702188090501D5452100E061
:101FA0006521A0F1010800F8011C09980FA9A1EB17
:101FB000080707F1070700B1012000EB050101EB5D
:101FC000EA70A1693844A1EB0000A0F10100A06112
:101FD0002078C00602D42046FEF7A2FC099830B152
:101FE000D4E901219047206A00F1010020622078A5
:101FF000C00620D52046FEF793FC1CE0002E04DB33
:10200000B34502DD01A8805D00E03020D4E9012164
:102010009047206A761C401CBAF1010A20620AD15E
:10202000FFF70DFDC0680168405CD4E901219047CD
:10203000206A401C2062281EA5F10105DEDC07E0B5
:10204000D4E9012118F8010B9047206A401C206256
:10205000381EA7F10107F3DC2046FEF778FC0220CA
:1020600011B040E601694A1C02610878704700B56A
:102070008FB0CDE901310021059105497944CDE9C1
:10208000031011466846FEF76BFD0FB000BD00005F
:10209000E5FFFFFF0A6802F8010B0A60704710B500
:1020A000436913B1AFF3008001E0FEF762FC012049
:1020B00010BD127800F124010A7000224A7001223A
:1020C000EDE711684FF0FF32E9E73A2800D23038E7
:1020D00020F02002412A01D3A2F13700884201D327
:1020E0004FF0FF3070470000026811441378016020
:1020F00018467047D16005497944516104497944D3
:10210000116200211161114600F0E6BBEDFFFFFFF7
:1021100045070000426842B1016811F8013B23B154
:10212000521EC0E90012184670470121C160881E86
:10213000704742685AB1C368016843B983688B42EB
:1021400005D0491E521CC0E90012002070474FF014
:10215000FF3070472DE9F05F824615468B46002719
:102160000AF10104B9460078302801D09DB113E08E
:1021700014F8010B0127782803D0582801D045B165
:102180000AE00DB1102D07D1002714F8010B10251E
:1021900002E0082500E00A250026B0460EE005FB17
:1021A000080005FB06F101271FFA80F801EB104635
:1021B000B6F5803F00D3B94614F8010B2946FFF766
:1021C00084FF0028EBDABBF1000F05D00FB1641ECD
:1021D00000E05446CBF80040B9F1000F06D0FFF7FD
:1021E00033FC02210160C81EBDE8F09F48EA0640AA
:1021F000FAE72DE9F04791460F468046044600264F
:1022000014F8015B2DB1FEF739FA0068405DC00794
:10221000F6D12B2D02D02D2D18D0641E4A463946FA
:102220002046FFF797FF27B13968A14201D1C7F8CF
:1022300000804FF0020471050BD54042002803DDF9
:10224000FFF702FC0460A007BDE8F08746F4806653
:10225000E4E70028F8DAFFF7F7FB04606FF00040CE
:10226000F2E770B50D4601461446D36850692A4618
:1022700007F06CFD002807DA411C07D0E16820F068
:10228000004041F48041E160281A70BD204600F012
:102290002BF94FF0FF3070BDC1680022026021F4BD
:1022A000805141F0400111F4C06FC16001D08260E3
:1022B000704702694168891AC269891A816070474A
:1022C0002DE9F0470446C06840F48000E060010357
:1022D00013D520F40020E060810607D4E26A61682B
:1022E0008A4200D80A46A2EB0101216040F40010A6
:1022F000E06094F82500BDE8F08720F40010E0606D
:10230000800602D5204600F046F9E06842F28101DD
:102310004FF0FF390140012903D0204600F0E4F8D6
:10232000B8E02168002600290ADAC94340F4805049
:102330002160C4E902606068411C61600078DAE7EE
:1023400044F2400108420ED020F4A04040F040008A
:102350002660E06021696068A0EB0100E169A0EB04
:102360000100A06096E0216991B9C00310D4E06932
:10237000FEF7D1F92061B0B1E06840F4006010F4DC
:10238000407FE06002D140F48070E06020696060CE
:10239000E068D4F814A0C1061AD5C0030ED52046B3
:1023A00000F0D6F814E004F1240020610120E0617F
:1023B000E06820F4407040F48060E6E721696068DE
:1023C000401AA1690144504607F0E1FC0028A4DB53
:1023D000E068C0032AD56168E06A884200D80846F0
:1023E0002169451AE069471B1BD02046D4F81880A4
:1023F00000F0AEF808EB05015046C4F8188007F06D
:10240000C6FC002889DBE06840F40030E060000290
:1024100002D5A0692844A061E1692069C91B45185B
:102420000DE0204600F094F8E769F5E7256961685A
:10243000D4E90607491BE56208446560A061E068CD
:1024400020F0100010F4C06FE06002D0204600F0D1
:102450002BFEE06840F48050C4E90260000205D51C
:102460002069E06260606FF0010044E7224639466F
:102470002846FFF7F6FE411C0CD02918E16258B13E
:10248000401E2060681C6060E06840F40030E0603E
:10249000287830E748462EE765602046FFF7FCFEC7
:1024A000F8E710B50146C268900703D0900607D53B
:1024B000886A0BE0FFF7C8FA01210160881E10BD91
:1024C0008B69486818440B69A0EB030091F8483009
:1024D00023B191F84910A0EB010010BD1103FCD508
:1024E0000028FADD401E10BDC16821F4001141F042
:1024F0008001C16000218160016070472DE9F047D3
:10250000814614460E464FF0FF383248D568576969
:10251000054209D03846A16907F039FC002811DBD3
:102520002C48C0430540E5602B46324649463846B4
:1025300007F03BFCA16920F00042B21A11440028C8
:10254000A16103D02046FFF7CFFF4046BDE8F087EA
:1025500070B504460569C06A6168884200D80846BB
:10256000E16821F42011E160C90312D5A84208D026
:102570002246411B2846FFF7C1FF10B14FF0FF3044
:1025800070BD0020E562C4E90150E06820F48030AD
:10259000E060002070BD10B50446C06820F0200047
:1025A000E060A16AA06988420DD02046FFF7D0FF05
:1025B000E06820F4405040F01000E060A06AA061A4
:1025C0002069E062606044F24001E0688843E060B6
:1025D00010BD00001000020070B50C46064601F167
:1025E0004C05284607F032FB2146304618F0A2FD84
:1025F0000446284607F050FB204670BD10B56548DC
:102600005421FFF78BF864485421FFF787F863489B
:102610005421FFF783F862485E49624A624B0160C9
:102620005D4810605D4A1A60431C0B65511C0165D2
:102630000120106557484C3007F018FB56484C30C5
:1026400007F014FB55484C3007F010FB574807F0D3
:102650000DFB58484F4A56A17844FEF7D6FD20B9E5
:10266000544878440A3800F04DFD54484A4A52A173
:102670007844FEF7CAFD20B9504878440A3800F083
:1026800041FD4F48454A4CA17844FEF7BEFD20B9B4
:102690004B4878440A3800F035FD40233D48DC00C3
:1026A0000021224600F031FC20B1424878445438E1
:1026B00000F028FD384822464023002100F025FC88
:1026C00020B13E487844543800F01CFD334822467F
:1026D0001023002100F019FC002806D03848784467
:1026E000BDE81040563800F00DBD10BD2B482DE957
:1026F000F041006D2D4E20F00104304607F0A6FA9F
:10270000244D4C35284607F0A1FA2248FEF778FC04
:10271000284607F0C1FA2846AFF300801E4D4C351D
:10272000284607F093FA1C48FEF76AFC284607F093
:10273000B3FA2846AFF30080184D4C35284607F011
:1027400085FA1648FEF75CFC284607F0A5FA2846ED
:10275000AFF3008014E0206D20F0010504F14C007F
:10276000074607F073FA2046FEF74AFC384607F0A2
:1027700093FA3846AFF300802046FEF707F82C4660
:10278000002CE8D1304607F087FA0848AFF3008004
:10279000BDE8F08168A10020CC100010BCA1002091
:1027A0008C0500201001001090050020140100107D
:1027B000720000005A9F030077000000489F03004A
:1027C000379F03002DE9F04115460E46040002D163
:1027D0002C6804B90BA4204600F0B2FC0444207815
:1027E00070B127463146384600F09AFC0444207800
:1027F00010B1002004F8010B38462C60BDE8F081D0
:102800000027F9E70000000030B404468C46436816
:10281000002B18BF634538BF1846F8D30368184427
:10282000604507D0C81C20F0070000F1040CACEB99
:102830000100121A2146CCF8002030BC00220CF115
:102840000400FDF772BF10B50446FDF717FF0068DE
:10285000005D00F0010010BD2DE9F0411F46044667
:1028600003260168072A01F4006004DB08B116A5FD
:1028700005E016A503E008B115A500E015A521F0B7
:1028800010002060A069C01EA0610FB1401EA061B1
:102890002046FEF745F84FB1D4E90121384690476C
:1028A000206A401C2062C01C206206E0206AFAE711
:1028B000D4E9012115F8010B9047761EF8D2204685
:1028C000FEF745F8BDE8F0814E414E006E616E00A6
:1028D000494E4600696E66002DE9F34F4FF0000A3D
:1028E0000C4656468DB001200C9001F10C000B9067
:1028F00062690B980121904705002DD0252D2CD021
:10290000216A8847C0B162690B9801219047216A0A
:1029100088470028F7D16269411E0B98904700E074
:10292000761CA1690D988847216A88470028F7D14D
:10293000E1690D988847DBE7A1690D988847A842AF
:10294000074601D1761CD3E7E1690D9888477F1CC3
:1029500002D1BAF1000F6FD06AE162690B980027CB
:102960003D46394690472A2804D162690B980121D7
:1029700090470125DFF8CC8262690B9801219047CE
:10298000A0F130010A290AD24745E5DC07EB8701AF
:1029900000EB4107303FDFD445F01005ECE7E906D6
:1029A00001D46FF000476C280AD04C2814D0682856
:1029B00015D06A280DD074281CD07A281AD01DE0B2
:1029C00062690B98012190476C2802D045F00405FC
:1029D00014E045F002050DE045F020050AE06269CB
:1029E0000B9801219047682802D045F0080505E0C2
:1029F00045F4006562690B9801219047C4E90157CD
:102A000065283DD019DC582879D00CDC452837D012
:102A100004DC252826D041289ED131E046282FD03D
:102A2000472899D12CE05B287FD0612828D06328E3
:102A30007BD0642890D159E0F5E06F2847D008DCBE
:102A400066281DD067281BD0692821D06E2816D192
:102A500027E0702844D0732867D0752846D078289E
:102A60000DD14CE0A1690D988847252805463FF413
:102A700069AFE1690D9888476D1C3FF46AAFD7E0F4
:102A80000D9923466A466FF00100AFF30080C4E061
:102A900045F0400023464FF000026060A80735D49F
:102AA0003DE0206800F1040121600068290501D59E
:102AB00006701DE7290701D5068019E7A90704D587
:102AC0004FEAE671C0E9006112E7066010E745F0E1
:102AD000400023464FF008026060A80716D41EE0AD
:102AE00040F60E0125EA0100606016E045F0400066
:102AF00023464FF00A026060A80707D40FE045F0B4
:102B000040006060A80708D5234610220D996FF099
:102B10000100AFF3008080E007E0102223460D990A
:102B20006FF00100FEF700F977E04FF0000963282D
:102B30004F46C8464B46CB4602D05B2806D038E00D
:102B4000E80601D40120A060012732E06269D4F8D0
:102B50000CB00B98012190475E2807D14FF0010976
:102B600049466269D4F80CB00B989047216939B98D
:102B700000210B4603AA42F82130491C0829FADB40
:102B8000D8B3216949B308F1010862690B980121A2
:102B900090475D28F4D1B9F1000F09D0002003A9B6
:102BA00051F82020D24341F82020401C0828F7DBB0
:102BB00003AB2069002820794FEA40701ED05B46A5
:102BC0002246CDF80080CDE901970D9900286FF0DD
:102BD000010020DAAFF300801FE0C11700EBD162E3
:102BE00003A9531122F01F0201EB8301821A0B6823
:102BF0000120904003430B60C7E719E00D9922467E
:102C000000286FF00100009702DAAFF3008004E0C3
:102C1000AFF3008001E0AFF3008000280ADA401C27
:102C200006D10C9820B14FF0FF300FB0BDE8F08F07
:102C30005046FAE7E90701D10AF1010A06440020EB
:102C40000C9055E6CCCCCC0C2DE9F04781461646CD
:102C50008AB035487844D0E9002380680092CDE9F5
:102C60000130314878440C38D0E9022300690392DE
:102C70004FF03702CDE9043041F69B30014491FB1F
:102C8000F2F0A0F1800502FB10141B3C02D5644257
:102C9000012000E00020DFF890A080460027FA44E1
:102CA000AAF1C60A0DE0E00709D03246684607EBF4
:102CB00047010AEB810100F0E1FD8DE80700641097
:102CC0007F1C002CEFD1184F7F44B43F17E0E8077A
:102CD00013D007EB04100DF1180A90E80E00AAE8D3
:102CE0000E00C068F04201D198190890324606A93A
:102CF00003A800F0C3FD03AB07C36D10641C002DD7
:102D0000E5D132466946B8F1000F03A802D000F0C1
:102D1000A1FD01E000F0B2FDC9E90001C9F80820F9
:102D20000AB0BDE8F08700007CC503002DE9F0473C
:102D300005460C46C86820F4201040F48000C860A6
:102D4000800602D50846FFF726FCE06841F28201C2
:102D50004FF0FF390140022903D02046FFF7C4FBA2
:102D6000B8E000F42041B1F5004F0FD1C00306D503
:102D70006168E06A884200D80846606006E0206921
:102D8000E0626060606906F0A2FFA061A0680022B6
:102D9000EEB200280DDAE1688B050AD4C043A060CA
:102DA00041F490302260E0606068411C6160067010
:102DB000A9E0E0689046226040F40050E06020699D
:102DC00068BB606906F08EFF012704F12405A0B1FD
:102DD000A08910F4407F08D0E069FDF79CFC2061D9
:102DE00018B1E06840F4006016E0E7612561E06832
:102DF00020F4407040F480600EE0E069FDF78BFC49
:102E000000282061F1D0E06840F4006010F4407FB9
:102E1000E06002D140F48070E06020696060E068AA
:102E200025696FF0010AC10521D56168E06A884211
:102E300000D80846411B04D022462846FFF75EFB17
:102E4000F0BBE068010203D5E562C4E9015858E02F
:102E500005F10101E1626160E16940F48030A1F1B6
:102E60000101C4E9021030462E70BDE8F08701026E
:102E700002D500F480320AE06068411C616006708F
:102E8000E0680A2E40F48030E06006D00022E16A5B
:102E90006068814203D90B4602E00122F7E703464E
:102EA000A789A3EB05037F0503D4E7699F4200DDF3
:102EB000EAB1814200D801460F1A002BE56200E01A
:102EC00008E0C4E9015807DD224619462846FFF705
:102ED00015FB08B14846C8E74FB1A069E5626560D7
:102EE000A0EB0700A061E06840F01000E060E0683F
:102EF000000208D56168A069E562491B0844656065
:102F0000A0615046B1E73046AFE72DE9F0470446EF
:102F10001E4690460D46C7684C30814606F096FE28
:102F2000B80714D0780212D44046B8F5807F09D093
:102F3000B0F5007F06D0B8F5806F08D1012604F106
:102F4000240506E0701E6FF07F41884201D3012402
:102F500009E02561E6616560E06820F4706040EAA0
:102F60000800E0600024484606F096FE2046BDE8D2
:102F7000F0872DE9FF4F06461C468B4681B003F1D2
:102F80004C00009006F062FEBBF1000F06D00399E2
:102F90002768002528460BFB01F965E000247CE04A
:102FA000002F63DCE069484541DABAF1000F3ED0FA
:102FB000207B800601D5A06A04E0A169606808440E
:102FC0002169401A2246A9EB050180463046FFF7E9
:102FD00048F9002814DD4FF000078044A8F10101F2
:102FE0000644A161226916F8011C0544117021698B
:102FF00001F10101E1626160E16841F40031E160E9
:10300000411C03D010B1207B400642D52046FFF77B
:1030100043F9C4F8188020696060E062E0682760C6
:1030200020F40030E060E0694042A06018E04845CC
:1030300003DAE06840F40000E0602046FFF740F962
:10304000E16821F40001E160411C08D0811C0AD034
:103050002768002807DB6D1C06F8010B19E02760C4
:10306000B5FBFBF419E00120824612E0A9EB050054
:10307000B846B84200DA8046304642466168FEF7FC
:103080002DFA6168A7EB0807464401EB08004544A8
:1030900060604D4584DB2760039C009806F0FCFDD2
:1030A00005B02046BDE8F08F2DE9F04707461348EC
:1030B000814606F0CBFD124C40F2022817E094F84E
:1030C0005000C00710D0BC420ED004F14C05284679
:1030D00006F0BCFDE668284606F0DEFD38EA06008C
:1030E00002D12046FDF7F2FF206D20F00104002CF4
:1030F000E5D1484606F0D0FDBDE8F0871401001088
:1031000068A1002010B500F0D9F8BDE8104000F02B
:10311000D0B810B500F0ECF8BDE8104000F0C9B828
:1031200030B503461D781DB10A4603E0AC4201D11B
:10313000181A30BD12F8014B002CF7D15B1CF1E7D7
:1031400030B503461D783DB10A4612F8014B1CB15B
:10315000AC42FAD15B1CF5E7181A30BD2DE9F041FD
:1031600014460D46074601F14C06304606F06EFD4A
:10317000094B7B44224629463846FEF778FF044631
:10318000287B000601D54FF0FF34304606F084FD61
:103190002046BDE8F0810000BF7F010070B50E46FB
:1031A000044601F14C05284606F050FD04E0314686
:1031B00017F0C0FF401C09D014F8010B0028F6D10D
:1031C0000024284606F068FD204670BD4FF0FF340D
:1031D000F7E72DE9F05F0E4680461C46924602FB5B
:1031E00006F503F14C00834606F030FD26B3A768D0
:1031F000002043E0002F43DCE069A8421EDAB9F169
:10320000000F1BD0224629464046FFF777F908B148
:10321000A7602BE0E06810F4C06F01D000200AE046
:1032200022696168C003A1EB0201E269A2EB01011E
:10323000A16001D44842A060544618E0A84203DAD5
:10324000E06840F40000E060214698F80000FFF7D5
:103250006DFDE16821F40001E160411C06D0A76822
:1032600000280ADB6D1E08F1010818E0002458460A
:1032700006F012FD2046BDE8F09F012081460EE0D9
:10328000AF423E4600DD2E46414632466068FEF7BC
:1032900025F96068BF1BAD1B3044B0446060002D51
:1032A000A8DCA760C8E70446AFF300802046FDF71E
:1032B000DFF8002801D006F008BD704710B50146C0
:1032C00002A000F03DF8012010BD00005349475214
:1032D000545245443A2052656469726563743A20D9
:1032E00063616E2774206F70656E3A2000000000E5
:1032F00010B5012805D0002103A000F021F801201D
:1033000010BD09A1F8E7000053494752544D454DFF
:103310003A204F7574206F662068656170206D6576
:103320006D6F7279000000003A2048656170206D71
:10333000656D6F727920636F727275707465640069
:1033400070B505460C460A2000E06D1C06F06EFDC7
:1033500035B128780028F8D102E0641C06F066FD3B
:1033600014B120780028F8D1BDE870400A2006F09A
:103370005DBD5FEA400C08BF91F0000F4FEA8C235F
:103380004FEAC12243EA51514FEA1C5018BF00F5E1
:10339000F0404FEA300018BF41F000415FEA6C5C3A
:1033A00000F02980BCF1FF3F08BF40F0804070472B
:1033B000130C06BF12044FF0100C4FF0000C130E4C
:1033C00004BF12020CF1080C130F04BF12010CF120
:1033D000040C930F04BF92000CF1020CD30F04BF36
:1033E00052000CF1010C11464FF00002A0F11F0039
:1033F000A0EB0C00704711F0004F08BF704731F090
:1034000000413FF4D5AF0B0C06BF09044FF0100C80
:103410004FF0000C0B0E04BF09020CF1080C0B0F4F
:1034200004BF09010CF1040C8B0F04BF89000CF1DF
:10343000020CCB0F04BF49000CF1010CCCF12003AE
:10344000A0EB0C0022FA03F302FA0CF241EA0301AA
:1034500000F10100704720F07F4C80EA030023F068
:103460007F47ACEB070303F57C5300F0004003F10A
:10347000FF032DE980494FEA154B09B44FEA144385
:1034800025EA0B4E24EA03480FF2042606EB132725
:1034900049083E785FEA320203FB0667C7F500077A
:1034A00007FB06F64FEA54374FEAD64606F1020606
:1034B00007FB066CCCF1005C4FEA1C472CEA074C7A
:1034C00007FB06F40CFB06F504EB15464FEA9616CF
:1034D00034BF00204FF000404FEAD13706FB07FC15
:1034E0004FEA1C4C0CFB0BF7D21B03FB0CF761EBF8
:1034F00007010CFB0EF7B0EB074072EB17420CFB19
:1035000008F734BFA2EB0742B2EB074261EB174169
:103510004FEA0C444FEA910706FB07FC4FEA1C4CAC
:103520000CFB0BF7B0EBC74072EB573203FB0CF709
:1035300034BFA2EBC742B2EBC74261EB57310CFB81
:103540000EF7B0EBC70072EB57720CFB08F734BFF5
:10355000A2EBC702B2EBC70261EB5771039F4FEAC0
:10356000816141EA921104EBCC044FEAD1374FEA72
:10357000826206FB07FC42EA90124FEA80604FEA43
:103580001C4C0CFB0BF7D21B03FB0CF761EB070188
:103590000CFB0EF7B0EB074072EB17420CFB08F781
:1035A00034BFA2EB0742B2EB074261EB17414FEA8F
:1035B0008C554FEA910704EB9C2406FB07FC4FEA6D
:1035C0001C4C0CFB0BF7B0EBC74072EB573203FB04
:1035D0000CF734BFA2EBC742B2EBC74261EB5731E5
:1035E0000CFB0EF7B0EBC70072EB57720CFB08F741
:1035F00034BFA2EBC702B2EBC70261EB577115EB08
:103600004C254FEA816141EA92114FEA82624FEA0A
:10361000D13742EA901206FB07FC44F100044FEA5E
:1036200080604FEA1C4C0CFB0BF7D21B03FB0CF722
:1036300061EB07010CFB0EF7B0EB074072EB174292
:103640000CFB08F734BFA2EB0742B2EB074261EB79
:10365000174115EB1C154FEA813141EA92414FEABF
:10366000823242EA90424FEA80304FEA0C7644F1CF
:10367000000448EA03434EEA0B484FF0000EB2EB59
:10368000080C71EB030724BF624639464EEB0E0E61
:103690004FF0000B0018524149414BEB0B0BB2EBC2
:1036A000080C71EB03077BF1000B24BF624639461F
:1036B0004EEB0E0E4FF0000B0018524149414BEB00
:1036C0000B0BB2EB080C71EB03077BF1000B24BF73
:1036D000624639464EEB0E0E51EA020718BF46F01D
:1036E000010616EB0E7655F1000254F1000103D5E8
:1036F000BDE88901BDE80088BDE88901BDE8004852
:10370000B619524141EB0101A3F1010370478080DA
:103710007F7E7D7C7B7A797877767675747372712B
:1037200071706F6E6E6D6C6C6B6A6A6968686766E3
:1037300066656464636362616160605F5F5E5E5D75
:103740005D5C5C5B5B5A5A595958585757565655E9
:1037500055555454535352525251515050504F4F4B
:103760004F4E4E4D4D4D4C4C4C4B4B4B4A4A4A499B
:1037700049494848484747474746464645454544DE
:103780004444444343434342424242414141002B6B
:1037900026D4770021D01CB54FEA370703B44FF089
:1037A00010004FF010014FF000000FBCBDE81040BA
:1037B0000BF1010BBBF1010F08BF5FEA170722BF36
:1037C00012F1010211F101014FF0004143F1000338
:1037D00000F0004043EA00007047F9D35708DAE7E9
:1037E00046EA064613F1400F4FEA16461FDD13F175
:1037F000200FDFBF16430A46002120335B42C8D0AA
:10380000C3F1200746EA064602FA07F74FEA1646D2
:1038100046EA0706C3F1200722FA03F201FA07F786
:1038200021FA03F14FF0000342EA0702B1E746EA4A
:10383000020646EA06464FEA164646EA0106BCBFBD
:1038400046EA0646360C4FF000034FF000024FF0F8
:1038500000019EE72DE9C048934630B491E8380056
:1038600007C831EA400C48BF34EA430C03D5FFF7E0
:10387000F2FDFFF78CFFF0BCBDE800882DE9C048E1
:10388000934630B491E8380007C810F0804F08BF65
:1038900013F0804F03D100F005F8FFF778FFF0BC7C
:1038A000BDE8008820F07F4780EA030023F07F4CCA
:1038B00007EB0C03A3F57C5300F00040A3F1FE03DB
:1038C00092F0000F00F0B38095F0000F00F07780C9
:1038D0002DE901494FEA11404FEA144621EA004818
:1038E00000FB06FC24EA064708FB06F607FB08F87F
:1038F00000FB07F718EB06484CEB164C4FEA124B4F
:1039000018EB07484FEA15464CEB174022EA0B4EDE
:103910000BFB06FC25EA06470EFB06F607FB0EFE30
:103920000BFB07F71EEB064E4CEB164C4FF0000658
:103930001EEB074E4CEB174B18EB0B0840F1000049
:1039400018EB0E0B58EB000840F100008F1A4FF0F7
:1039500000013CBFC943661B14BFB5EB040C00213A
:103960003CBFC943F61B4FEA17444EEA8E0E27EAC6
:1039700004454FEA1C4704FB07622CEA074C05FB91
:1039800007F70CFB05F604FB0CFC16EB074642EBB5
:10399000174216EB0C4642EB1C421BEB060658EB9B
:1039A0000202414146EA9E0601D5BDE80189B619E9
:1039B000524141EB0101A3F10103BDE801894FEA46
:1039C00014454FEA114724EA054621EA074C05FB56
:1039D00007F406FB07F70CFB06F105FB0CFC11EBEB
:1039E000074144EB17444FEA124711EB0C4144EBFB
:1039F0001C4422EA074C05FB07F206FB07F70CFB09
:103A000006F605FB0CFC16EB074642EB174216EBDD
:103A10000C4642EB1C456A1854F1000148BF704740
:103A2000B619524141EB0101A3F10103704795F032
:103A3000000F37D04FEA11424FEA144721EA0246FD
:103A400024EA074C02FB07F106FB07F70CFB06F420
:103A500002FB0CFC14EB074441EB17414FEA1547FE
:103A600014EB0C4441EB1C4125EA074C02FB07F523
:103A700006FB07F70CFB06F602FB0CFC16EB0746F1
:103A800045EB174516EB0C4645EB1C42121951F15C
:103A9000000148BF7047B619524141EB0101A3F143
:103AA000010370474FEA14454FEA114724EA0546DF
:103AB00021EA074C05FB07F106FB07F70CFB06F2B2
:103AC0004FF0000605FB0CFC12EB074241EB1741DF
:103AD00012EB0C4251EB1C4148BF7047921841EB6E
:103AE0000101A3F1010370470000000010B52E484A
:103AF00001F056F80220002817DB00F01F01012218
:103B00008A402A49430941F8232000BF00BF00BF73
:103B1000BFF34F8F00BF00BF00BF00BF00BF00BF9B
:103B2000BFF36F8F00BF00BF00BF00BF232006217F
:103B3000002804DB4A07130E1D4A135406E04A0707
:103B4000140E1C4A00F00F031B1FD45400BF0220A8
:103B500000280EDB00BF00BF00F01F0201219140D2
:103B600042094FF0E02303EB8202C2F8001100BFCC
:103B700000BF00BF15210C4800F0F6FF0E49087089
:103B80001321094800F0F0FF0C490870182106487D
:103B900000F0EAFF084948701721034800F0E4FFED
:103BA0000649487010BD00000020004080E100E0A0
:103BB00000E400E018ED00E0DC000010DE00001082
:103BC00010B50A4800F0D6FA084801F0ABFB4FF4F4
:103BD000E131064801F0EDFB0321044801F062FBEE
:103BE00000BF01200149C86500BF10BD00200C4086
:103BF00010B508206A490860091D086069486A49CB
:103C0000096850F8210068490A7901219140084368
:103C10006449654A126841F8220008466249896889
:103C200050F8210060490A7B0121914008435D4919
:103C30005D4A926841F8220000F014FB00205849C8
:103C40000831086057485949096850F82100574918
:103C50000A790121914008435249544A126841F8B7
:103C60002200524801790120884051494F4A126888
:103C700041F8220000204A49AC31086049484B49CC
:103C8000896850F8210049490A7B01219140884305
:103C90004449464A926841F822000020454908609C
:103CA00040484249096950F8210040490A7D0121F4
:103CB000914088433B493D4A126941F82200002067
:103CC0003C490C39086037483849896950F8210067
:103CD00036490A7F0121914008433249334A9269AB
:103CE00041F822003148017F012088403049803965
:103CF0002E4A926941F82200002000F0DBF80420EF
:103D00002749A0310860091D0860091D08600024CA
:103D10001FE02448284951F8341050F82100264962
:103D200001EBC4010A790121914001431D48224A57
:103D300052F8342040F822101F4800EBC4000079EC
:103D4000012181401A481C4A52F8342040F82210C0
:103D5000641C032CDDDB4420184908601849C1F8B5
:103D600088011849086001F1040108604FF000045F
:103D700013E00C48144951F8341050F8210012494E
:103D800001EBC4010A7901219140884305490E4A9B
:103D900052F8342041F82200641C042CE9DB10BDE9
:103DA0000067084000600F4004C6031AE4C5031A08
:103DB00080620F408C640840CCC5031A84610840BF
:103DC000006008400866084014C6031A10B504468F
:103DD000012C03D10AA0FCF777FD0FE040F60800A4
:103DE0001149086000BF002000F0E6FF0F490020E5
:103DF00001F074F8012100201CF050F910BD000002
:103E00002A2A2A2043616E277420737570706F729E
:103E1000742049324331205065726970686572615F
:103E20006C202E2E2E0A0000846C0840801A06009A
:103E300010B5064B53F8301003EBC0035A6801234A
:103E40009340034C44F8213010BD0000CCC5031A48
:103E500000620F4010B5064B53F8301003EBC0035F
:103E60005A6801239340034C44F8213010BD0000F0
:103E7000CCC5031A80620F4030B505460C461CB114
:103E80002846FFF7E7FF02E02846FFF7D1FF30BDE5
:103E900010B5064B53F8301003EBC0035A680123EA
:103EA0009340034C44F8213010BD0000CCC5031AE8
:103EB00000630F4048B90A490A7F01219140094A2D
:103EC000074B9B6942F8231009E005490A7F01214D
:103ED0009140044A8032024B9B6942F8231070479C
:103EE000E4C5031A00620F402DE9F04104460E4676
:103EF00015461F462C48844217D18DB904212B4802
:103F000001F082F82A48427801780123294800F01C
:103F1000BDFE274842780178264800F0D6FE21E011
:103F20000421254801F070F81CE02448844217D190
:103F30008DB90421224801F067F81D48C2788178C4
:103F400001231C4800F0A2FE1948C2788178194864
:103F500000F0BBFE06E004211A4801F055F801E02C
:103F6000BDE8F081204601F085F8082E06D1C02377
:103F700000220721204601F0C8F805E0C0230022F6
:103F80000F21204601F0C1F83946204601F090F893
:103F90000121204601F0C2F800BF606840F0020035
:103FA000606000BF00BFDBE7003008403ED7031A67
:103FB0007ED7031A00400F404ED7031A00500C4022
:103FC0005ED7031A6ED7031A70B50023012211467B
:103FD000052000F05BFC2548254AB0FBF2F1254A9C
:103FE000126822F4704242EA0132234BC3F82021C6
:103FF000224A126822F4704242EA0132C3F82421B4
:1040000000BF4FF0010201464FF0060001F09AF8A0
:10401000002411E01A4D05EB8405EB78184D05EBF3
:104020008405AA78164D05EB84056978144D15F8BA
:10403000240000F02BFC641C042CEBD30E484068D9
:1040400020F00C000C4948600846406840F003002E
:10405000486005220921042000F03CFC00230122D5
:104060001021052000F012FC70BD000000CB280CD0
:1040700070374801203104400030044024310440AE
:1040800084D7031A10B545F255500E490860022333
:10409000012211466F2000F079FA0B48006840F4C5
:1040A00080300A49C1F82C014FF0660000F02CFA6C
:1040B00000221146012000F035FD054800F024FDE6
:1040C00010BD0000006D08402C3104400030044059
:1040D00038D9031A10B55F211D4800F0A9FF002050
:1040E00004460DE01B4A02EB84025078194A02EBA9
:1040F00084025188184A42F8201000BF601C044610
:10410000042CEFD30621154800F092FF5F21002414
:104110001AE0601C15E00E4A12F824200C4B13F82C
:1041200020309A420CD10A4A02EB84025278084BA2
:1041300003EB80035B789A4202D100E000BFFDE709
:10414000401C8842E7DB641C8C42E2DB10BD0000AF
:10415000ACD7031A28D9031A006C084094D7031A65
:1041600010B503F011FDFFF7B5FFFFF72DFFFFF7C7
:1041700089FF10BD10B504462D4884420AD11F2284
:104180000521092000F038FFD7220621092000F080
:1041900033FF4CE0274884421CD11A220D210C2009
:1041A00000F02AFFD2220E210C2000F025FF1C2255
:1041B00001210D2000F020FF1F48C27881780123E3
:1041C0001E4800F063FD1C48C27881781B4800F04F
:1041D00084FD2CE01A4884421CD11B2201210A20B4
:1041E00000F00AFFD32202210A2000F005FF182266
:1041F00003210A2000F000FF0F48427901790123D2
:104200000E4800F043FD0C48427901790B4800F05C
:1042100064FD0CE00B48844209D11A2203210220DC
:1042200000F0EAFED2220421022000F0E5FE10BDDB
:104230000010084000200840C0D6031A00400F407C
:1042400000100C4000200C400448017B01208840F5
:104250000349024A926841F82200704704C6031AD3
:1042600000630F4004480179012088400349024A55
:10427000126841F82200704704C6031A80620F409A
:1042800004480179012088400349024A126841F834
:104290002200704704C6031A00620F40014611B1A4
:1042A000012903D100E000BF012070470020FCE796
:1042B00001460E480844401EB0FBF1F212F0010F17
:1042C00000D0521C00204FF040231861D8605008E5
:1042D0009860981318610648D86200BF4FF04020DC
:1042E000C06A10F0004FF9D10120704720BF0200D2
:1042F000002020800146012902D0042914D109E0C0
:104300004FF04020806920F001004FF04022906182
:10431000012070474FF04020806940F001004FF0CD
:10432000402290610120F4E70020F2E770B50446D6
:104330000D4640681BF0E1FD104EB0421CD1606894
:1043400000F5FE701BF0D9FDB04215D16068001D6C
:104350001BF0D3FD2860606808301BF0CEFD68605C
:1043600060680C301BF0C9FDA860606810301BF05D
:10437000C4FDE860012070BD002070BD4A53464B6B
:10438000F0B50446C1680320B1FBF0F789B0002600
:104390005FE000BFA16806EB46000D18D4E90001FC
:1043A00001228368681C9847002855D0694620463A
:1043B000FFF7BCFFF0B3D4E9000101228368A81C19
:1043C0009847002848D020690099884202D3401CB1
:1043D00008D139B9E81CC4E90410781E864201D11D
:1043E000A068606104A92046FFF7A0FF18B10499F6
:1043F000009888422CD0D4E9000101228368284625
:104400009847002828D0226861680298D368012262
:104410009847002820D0039830B1D4E90021D36810
:1044200001229847002817D04FF400716068FDF70B
:1044300053F900E00CE0D4E900010122C368681CD4
:104440009847002808D0607E40F00400607602E0C3
:10445000761CBE429ED3012009B0F0BD002040F082
:104460000100704710B5044800F026FB0120024906
:10447000C86000BF10BD000000E000402DE9F0431F
:104480000546884616463446C1460EE0802C01DDBE
:10449000802000E0204607463B464A462946002049
:1044A00001F0AAF8B944E41B6D1C002CEEDC301BB3
:1044B000BDE8F0832DE9F0470546884616463446A8
:1044C000C14611E0802C01DD802000E02046074637
:1044D000284601F079F83B464A462946002001F07B
:1044E000A1F8B944E41B6D1C002CEBDC301BBDE8CB
:1044F000F08700000348406C40F001000149486427
:104500007047000000000540B0F5A17F0ADB0A49B2
:10451000A0F5A17251F8321041F00103064941F8AB
:10452000323007E0054951F8301041F001020349EB
:1045300041F830207047000000210540001105407F
:1045400008B54FF47A7100910D49886920F0020096
:104550008969814201D00A49886120F00100094936
:104560000968094A914201D340F004000449886176
:1045700000BF00994A1E00920029FAD108BD000030
:1045800000000540BCD6031A002D310170B5044669
:10459000012009B140F002000AB140F00400022BF2
:1045A00001D140F02000B4F5A17F05DB044DA4F556
:1045B000A17645F8360002E0024D45F8340070BDA2
:1045C000002105400011054010B502461C200021C5
:1045D00014E001EB41030F4C34F8133093420CDC30
:1045E00001EB410304EB43035B88934205DB01EBE2
:1045F000410304EB4303187900E0491C1C2807D150
:1046000001EB4103034C04EB43031B798342E0D1EC
:1046100010BD000004D6031A01461C2901DB11203D
:104620007047054850F8212012F0010F01D01120E9
:10463000F6E7C2F30460F3E75C00054070B504469A
:104640002046FFF7E9FF054600F002F870BD0000C4
:1046500070B504460025122C51D2DFE804F0090C95
:104660000E1620502326292C505030363C42484EFE
:104670004FF4004544E0244D42E02448006800F037
:104680000700042800D0224D3AE02048006800F0DE
:104690000700042801D01E4D00E01E4D30E01E48EA
:1046A00005682DE01D4805682AE01D48056827E0DB
:1046B0001B48456824E000F081F8054620E0002111
:1046C000204600F02FF805461AE00121204600F0B0
:1046D00029F8054614E00221204600F023F805469B
:1046E0000EE00321204600F01DF8054608E00421F5
:1046F000204600F017F8054602E0002500E000BF64
:1047000000BF284670BD0000001BB7002C310440DC
:1047100040787D0180F0FA02B8D6031ABCD6031A9D
:10472000440000202DE9F04107460C46204600F0E9
:104730001DF80646204600F009F805463046FFF70A
:1047400087FF691CB0FBF1F0BDE8F0810146044829
:1047500050F8210003A2525C02EA9000704700006A
:1047600048000540030F0F0FFF00000001460648F8
:1047700000EB8100826C12F0010F01D01120704714
:10478000C2F30460FBE700000000054070B566203E
:1047900000F050F8044607480068C0F3C265012DD8
:1047A00005D10548006810F4803F00D06408204619
:1047B00070BD0000781405402C3104402DE9FE4FF7
:1047C0001A48446CC4F30360FFF742FF074618A081
:1047D000006800901548006C10F0010F02D1002015
:1047E000BDE8FE8FC4F30748C4F30139C4F3012ABE
:1047F000C4F3C01BC4F38010029008F1010509F155
:1048000001061DF80A000190BBF1000F01D10298CA
:1048100018B1B7FBF6F06843E2E701984000B5FB3A
:10482000F0F0B7FBF6F14843DAE70000000005407E
:10483000010204082DE9F0410446B4F5A17F05DB2F
:104840001048A4F5A17150F8315002E00E4850F81C
:10485000345015F0010F10D02046FFF7B5FE80460A
:104860004046FFF7EBFE0646C5F3421008B90127A4
:1048700000E00227B6FBF7F600E000263046BDE870
:10488000F0810000002105400011054070B504468C
:104890000E4D05EB8405E86D1C2C10DA112914D09F
:1048A0000B4D28400AB140F400600BB140F001000C
:1048B00040EA0160054D5C3545F8240005E040F014
:1048C0000106024D5C3545F8246070BD00000540CE
:1048D000FEF7FFE030B50F4C04EB8004A36C521ED2
:1048E000112910D00CA4245C0D4D45EA8404A34387
:1048F00043F4006444EA016444EA8205054C483408
:1049000044F8205005E043F00105024C483444F8D7
:10491000205030BD00000540030F0F0FFF000000C6
:104920000100001F2DE9FF5F894617460098FFF739
:104930008FFE8046781C32D0B7FBF8F44A462146F9
:104940004046039B00F0A4F80546641C4A462146F5
:104950004046039B00F09CF8064645B13EB9641EF4
:104960002146009800F03CF804B0BDE8F09F2DB956
:1049700026B12146009800F033F8F5E77DB176B115
:10498000781BF11B884205D9641E2146009800F06F
:1049900027F8E9E72146009800F022F8E4E7B9FBA0
:1049A000F8F40398B0FBF8FB4FF0000A0CE04A461D
:1049B00021464046039B00F06BF8054605B1A24630
:1049C0005C4500D301E0641CF1E700BFBAF1000FC1
:1049D00004D05146009800F003F8C5E70020C3E773
:1049E0002DE9F84F80460E46FA2000904046FFF72A
:1049F0002FFE05464FF00009CA4600274FF0010B75
:104A00001F48446C7543A6F1010924F0F85444EAA8
:104A100008641C4804401C48854213D202E07F1CF5
:104A20004FEA4B0B4FEA4B00684317498842F6D3D5
:104A30004FEA094040EA0A3040EA072040F04000CF
:104A4000044311E01148854209D24FEA094040EA87
:104A50000A3040EA072040F0C000044304E0FFF7BA
:104A600049FD0020BDE8F88F24F0010004494864A6
:104A700000BF0098411E00910028FAD12846F1E7B6
:104A8000000005403DCC00FF005F4C0900D0121330
:104A900030B5044601FB04F0904204D3034DA84214
:104AA00001D8984200D9002030BD000000CB280C6E
:104AB00040F6E8721150704710B5044600BF002060
:104AC000A06100BF20462CF025FD00BF5820A0604B
:104AD00000BF40F23220206100BF00BF10BD70B5A2
:104AE00004460D4609E000BF4FF47E60065900BF42
:104AF00006EA0500A84200D100E0F4E700BF29461D
:104B00002046FFF7D5FF70BD70B50446FFF73EFEA7
:104B100005462A46214602481DF0EEFC70BD000005
:104B20000050004010B50AB1012300E0002309B194
:104B3000012400E0002443EA0423044CA36008B1EC
:104B4000012300E00023014C236010BD0050004011
:104B500021B901239340DBB2836003E0012393403A
:104B6000DBB203617047000070B505460E460024B5
:104B700000BF0FE022460521284600F035F838B97D
:104B80000648005D20B9012004490855204670BD43
:104B9000601CC4B2082CEDDB0020F8E78C0000108C
:104BA00070B5054601231A4619466820FFF7EEFC4A
:104BB000082408E00022601E05F5807101EB40101A
:104BC0000261601EC4B2002CF4DCFF20A8602861E2
:104BD000002404E0002003490855601CC4B2082CDE
:104BE000F8DB70BD8C00001010B50446052922D2F8
:104BF000DFE801F003090F151B0020680123934033
:104C0000DBB2184010BD606801239340DBB218404E
:104C1000F8E7E36801209040C0B21840F2E760690D
:104C200001239340DBB21840ECE7A36901209040D8
:104C3000C0B21840E6E7E06901239340DBB21840B8
:104C4000E0E730B505460C46224600212846FFF72E
:104C5000CBFFC8B1224601212846FFF7C5FF30B17E
:104C6000224600212846FFF773FF012030BD22466F
:104C700002212846FFF7B8FF30B12246012128461D
:104C8000FFF766FF0020F1E70020EFE730B56BB1DA
:104C900000BF00F5005454F82140012595402C43F5
:104CA00000F5005545F8214000BF0DE000BF00F5BC
:104CB000005454F8214001259540AC4300F50055BF
:104CC00045F8214000BF00BF30BD10B5012393401F
:104CD00000F5085444F8213010BD10B5012393406D
:104CE00000F50A5444F8213010BD00002DE9F041D0
:104CF00004460D46C4EBC4000E4901EB80080E4F7C
:104D0000012D02D00020BDE8F081D8F8100000F19C
:104D1000140600BF3078042803D1381EA7F101071C
:104D2000F8DC2FB905A0FBF7CFFD4FF0FF30EAE725
:104D30000020E8E79400001020A107004368697094
:104D40005F4932435F4576656E7448616E646C6599
:104D5000722054696D656F7574200A002DE9F04169
:104D600004460D46C4EBC400124901EB800842F230
:104D70001077012D02D00020BDE8F081D8F8100096
:104D800000F1140608E0204600F02CF820B142F2B1
:104D90001077204600F032F83078042803D1381E0E
:104DA000A7F10107EFDC17B94FF0FF30E4E700206F
:104DB000E2E700009400001010B5044600BFC4EB09
:104DC000C401074A02EB81018888FFF79DFB00BF01
:104DD0006C20C4EBC401024A52F82110886110BD56
:104DE000940000100146C1EBC100034A52F82000B4
:104DF0000068C0F3C00070479400001010B504466E
:104E0000C4EBC4020A4B03EB82021169C4EBC40277
:104E100053F822001BF0D2F840B9C4EBC400044997
:104E200001EB8000022182682046904710BD0000FF
:104E3000940000102DE9F04107460D46C7EBC7006E
:104E40001D4901EB80044CF2503603213846A2681C
:104E50009047042028752561606930B920682C21AD
:104E600081616021016000BF00BF01213846A26856
:104E700090470020206100BF20680168012222EADB
:104E8000111119B9301EA6F10106F5DC16B90BA0F7
:104E9000FBF71AFD208B10F47F4F02D0206830F012
:104EA000DAFC04213846A26890471EB94FF0FF3063
:104EB000BDE8F081287DFBE79400001009205761D0
:104EC000697420666F722073746F7020636F6E64F4
:104ED0006974696F6E202E2E2E0A00002DE9F041B4
:104EE00004460D4620461AF0A5F80746B7FBF5F62E
:104EF0007008C4EBC401094A52F821100861C4EBE0
:104F0000C400114651F820000069301AC4EBC401F6
:104F100052F821104861BDE8F081000094000010B3
:104F200010B50346C3EBC300064C04EB80021069C6
:104F300000B991609068884201D1012010BD002025
:104F4000FCE700009400001000B589B03A200490FE
:104F5000694604A81BF0F6F8019809B000BD0000EE
:104F600010B501460B4B0846CA1701EBD26252112D
:104F700003EB82030A46C81701EBD0604011A1EB96
:104F800040140120A0401C68204201D1012010BD26
:104F90000020FCE75031054010B5094A0146C3170F
:104FA00000EBD3635B1102EB8302C31700EBD36307
:104FB0005B11A0EB43140123A340136010BD00005C
:104FC000003105400160704710B50A46FF230EE02E
:104FD000046A23461460012107E000F1200454F81C
:104FE000214042F821404C1CE1B20829F5DB046A5B
:104FF0009C42EDD110BD0000024B03EBC01343F8FF
:10500000212070470060084070B505460E46002418
:105010000AE005EB84035A8805EB8403597815F8F8
:105020002400FFF7E9FF641CB442F2D370BD000016
:1050300070B5024600200EE012F8203002EB800628
:10504000747802EB80067588044E06EBC31646F8AA
:10505000245000BF401C8842EED370BD0060084061
:105060000146034A914201D1A52000E08320704708
:1050700000500C4070B504462046FFF7F1FF05468E
:10508000FFF742FA0021204600F056F807200021E1
:105090000A46236823F0FF0303430B4313432360B3
:1050A00000BF0249204600F003F870BDA086010051
:1050B0002DE9F04780460D464046FFF7D1FF824676
:1050C000FFF7B8FB81460024671E02260AE0601C39
:1050D0007043B9FBF0F7AF4204D9641CFF2C01D92F
:1050E0000024B61CAF42F2D832462146404600F0BA
:1050F00002F8BDE8F08710B5046824F47F43CCB211
:1051000043EA04240460026110BD10B5046824F071
:10511000FF040C4314431C43046010BD70B50546E6
:105120000C4624B10021284600F006F803E00421D3
:10513000284600F001F870BD426822F004020A43DC
:1051400042607047F8B506460D461746062E01D157
:10515000FFF7F6F90023012231460420FFF796FB02
:105160001F4885420BD903461A461E493046FFF7B1
:10517000D9FB0023012209210420FFF787FB00202F
:10518000009002E00098401C009017490098884267
:10519000F8DB2B462A46154801683046FFF7C2FB6C
:1051A000E7B1002418E0DFF848C00CEB840C9CF851
:1051B0000330DFF83CC00CEB840C9CF80220DFF8D5
:1051C00030C00CEB840C9CF80110DFF824C01CF8F4
:1051D0002400FFF75BFB641C122CE4D3F8BD000035
:1051E00080778E06001BB700A0860100BCD6031A8C
:1051F00070D6031A0146084A914201D1A4200AE060
:10520000064A914201D1A32005E0054A914201D10D
:10521000852000E08420704700400C4000300C40A6
:105220000050084070B504462046FFF7E3FF0546EE
:10523000FFF76AF970BD4168002242600122826076
:105240000222426000BF8268002AFCD141607047A0
:1052500010B5044600BFA06810F4807F0FD04FF453
:105260008071204600F0A1F84FF48071204600F0D4
:105270007FF80B48007810B901200949087000BF79
:10528000A06810F4007F09D04FF40071204600F0B0
:105290008CF84FF40071204600F06AF810BD000051
:1052A0004C000020C1607047C16821F08001C160DE
:1052B0007047C16841F08001C16070470146084AEB
:1052C000914201D1A2200AE0064A914201D1A120D7
:1052D00005E0054A914201D1822000E0812070471B
:1052E00000200C4000100C400020084070B505461E
:1052F0000E461446686810F0020F0BD0214628466F
:1053000000F07BF8204602F08BFC18B10221284601
:1053100000F02EF83146284600F02EF82846FFF718
:1053200097FF70BD70B504462046FFF7C7FF0646DD
:1053300001231A461946FFF729F90720A06000BF8C
:1053400000BF0020E06500BF6060E0602062E064B4
:10535000606520650548844202D100202061A5696E
:105360000320E06000BF1020A06270BD0020084054
:1053700042688A434260704738B504460D4608E0EB
:1053800000BF2068C0B200906946284602F02DFC9C
:1053900000BF204600F004F810F0010FF0D138BD36
:1053A00001464869704701607047026A0A43026219
:1053B00070472DE9F04780460E464046FFF77EFFD6
:1053C0008246FFF737FA07463001B7FBF0F4250AAB
:1053D000A4EB05294046FFF76CFFEAB209F0FF0194
:1053E000404600F007F84046FFF75EFFB7FBF4F0D9
:1053F000BDE8F08701604260704738B505460C464D
:1054000004E09DF800102846FFF7CDFF2846FFF77F
:10541000C7FF10F0200F05D06946204602F01EFCA1
:105420000028EED1204602F0FBFB30B102212846D5
:10543000FFF79EFF284602F063FB38BDF0B5044637
:105440000E46154637484FF04027786404F03F0079
:1054500040F4045040F00041012D02D0022D06D14D
:1054600002E041F0400102E041F0C00100BF00BF96
:10547000112C05D0122C03D0182C01D0192C07D1D7
:1054800041F40851182C01D0192C01D141F480614C
:10549000012C03D0292C01D00C2C01D121F48071D6
:1054A0004FF040208662C16245B900BF4FF04020F6
:1054B000406C10F0040FF9D00120F0BD00BF4FF098
:1054C0004020426C12F4A17F01D00020F5E712F4D5
:1054D000805F02D04FF04020C16212F0040FEED086
:1054E00011F4007F03D012F0080FE8D000E000BFF5
:1054F00000BF4FF04020006B1860022D0FD14FF01D
:105500004020C06B18604FF04020806B58604FF017
:105510004020406B98604FF04020006BD860012025
:10552000CBE70000FFFF010010B500241C48015D1F
:105530001C48FFF786FB012801D11B4908551B4871
:10554000015D1848FFF77DFB01280BD1184908556C
:10555000184850F8240028B1164850F8241010209C
:105560001FF050FA01240E48015D0E48FFF769FB59
:10557000012801D10C4908550C48015D0948FFF785
:1055800060FB01280BD10A4908550A4850F824004D
:1055900028B1084850F8241010201FF033FA10BD2D
:1055A000DC00001000200040D8000010DE000010D9
:1055B000DA000010E000001000EBC002910000E0F3
:1055C000491E0029FCD1704770B5054600240848E3
:1055D000802101FB050600BF07E0002046F82400FB
:1055E00004210448FFF77BFA641C202CF5D370BD1E
:1055F0000000042000E00040F0B504460020084E02
:10560000802707FB0166351900BF04E055F82060CC
:1056100042F82060401CB0EB930FF7D3F0BD0000C0
:10562000000004202DE9F04704460F4690461E4630
:1056300000250E48802101FB070000EB0409C4F19E
:105640008000B04201D2C4F18006002508E058F87D
:10565000250049F8250004210548FFF740FA6D1C94
:10566000B5EB960FF3D3BDE8F087000000000420EF
:1056700000E0004070B500241448456915F0210F82
:105680000ED021201149486111480068006810F0CF
:10569000004F05D10F480068543026F0A5F90443A7
:1056A00015F0500F0DD00948C06920F0500007498F
:1056B000C861012007490968C865074826F094F9C0
:1056C00004434FF4C0300149486170BD00100140EF
:1056D000200000201C0000204495002070B50646E4
:1056E000002440F2791014FB00F07C4901EB8005A6
:1056F0007B48006840F6FD1114FB01F1794A02EB8A
:1057000041114FF2C0221144C1F8BC037648006831
:1057100040F6FD1114FB01F1724A02EB41114FF208
:10572000C0221144C1F8FC037048006840F6FD1126
:1057300014FB01F16B4A02EB41114FF2C0221144FC
:10574000C1F8C0036948016840F6FD1014FB00F081
:10575000644A02EB40104FF2C0221044C0F8041417
:1057600040F6FD1014FB00F05E4901EB40101146BD
:105770000844806840F6FD1114FB01F1594A02EB20
:1057800041114FF2C022114443F60872885040F68E
:10579000FD1014FB00F0534901EB40104FF2C02103
:1057A0000844C06840F6FD1114FB01F14D4A02EBBC
:1057B00041114FF2C022114443F60C7288504B48FD
:1057C000006840F6FD1114FB01F1464A02EB41115D
:1057D0004FF2C022114443F6147288503221062041
:1057E00004F072F962E001224FF6FF711046DFF813
:1057F00000C100DF002457E040F6FD106043394946
:1058000001EB40104FF2C021084443F60421084444
:10581000C08C401C81B240F6FD106043314A02EB5F
:1058200040104FF2C022104443F604221044C184B9
:1058300040F279106043294901EB8000D0F84C1503
:1058400040F279106043254A02EB8000D0F8500501
:10585000814228D040F27910604302EB800000F2D0
:10586000545040F2791262431C4B03EB8202D2F88F
:10587000502502EBC20200EBC2011E4A204613F083
:1058800077F840F279106043144901EB8000D0F8BA
:10589000500580F0010140F2791060430F4A02EB9D
:1058A0008000C0F85015641C022CA5DB40F6FD10EA
:1058B00060430C4901EB40104FF2C0210844B0F89E
:1058C000060500288FD10CA0FAF7FEFF01224FF643
:1058D000FF710846DFF818C000DF70BD04651328AB
:1058E000F800002058DA1028F4000020E80000201A
:1058F0000104031A18D81028456E657267795F5441
:1059000061736B2073746F70706564202E2E2E0A85
:10591000000000000EB501A801F058F99DF8040040
:1059200010F0800F16D000208DF804008DF80500CF
:105930008DF806008DF807008DF8080001208DF81D
:1059400009008DF80A0017208DF80B0001A801F05E
:1059500099F908E0694601A800F006F8002211460E
:10596000009833F0C1F90EBD30B58BB005460C463A
:105970002C216846FBF7D2FE6946284600F006F85F
:105980006846FBF74EFF20600BB030BD3EB50546C4
:105990000C46A87810F0400F11D0A87810F0200F16
:1059A00005D0A97801F01F0005F031FF05E0A978C6
:1059B00001F01F0005F02BFF0C30A06005E0A97876
:1059C00001F03F0005F023FFA060697801F07F003F
:1059D00005F01DFF6060297801F07F0005F017FFDA
:1059E0002060A87905F013FF64306061697901F0E7
:1059F0001F0005F00CFF401E2061297901F03F00D7
:105A000005F005FFE060D4E901212068CDE900122E
:105A10000290D4E90330421C606900F26C7102A06C
:105A2000FAF752FF3EBD00004578745254435F744C
:105A30006F5F746D3D253034642D253032642D2523
:105A400030326420253032643A253032643A2530D1
:105A500032640A0000BFDFF8008400BF00BF00BF4F
:105A60000026FE4AFE480168FEA0FAF72DFFFB491A
:105A7000FB480068FBF752FE1DF04EF91DF0CCF814
:105A80002FE201224FF6FF711046DFF8F0C300DF6E
:105A900043F604204044C089401C81B243F60420F0
:105AA0004044C18141F625407043F54931F830103A
:105AB00041F625407043F24A02EBC0004088814223
:105AC0007ED040F6FD107043EE4901EB401540F6E4
:105AD000FD10704301EB40104FF2C02100EB0108B4
